{
  "contractName": "ERC20Simplfiied",
  "abi": [
    {
      "inputs": [
        {
          "internalType": "string",
          "name": "name_",
          "type": "string"
        },
        {
          "internalType": "string",
          "name": "symbol_",
          "type": "string"
        }
      ],
      "stateMutability": "nonpayable",
      "type": "constructor"
    },
    {
      "inputs": [],
      "name": "name",
      "outputs": [
        {
          "internalType": "string",
          "name": "",
          "type": "string"
        }
      ],
      "stateMutability": "view",
      "type": "function"
    },
    {
      "inputs": [],
      "name": "symbol",
      "outputs": [
        {
          "internalType": "string",
          "name": "",
          "type": "string"
        }
      ],
      "stateMutability": "view",
      "type": "function"
    },
    {
      "inputs": [],
      "name": "decimals",
      "outputs": [
        {
          "internalType": "uint8",
          "name": "",
          "type": "uint8"
        }
      ],
      "stateMutability": "view",
      "type": "function"
    }
  ],
  "bytecode": "0x608060405234801561001057600080fd5b506040516106c43803806106c483398181016040528101906100329190610288565b8160009080519060200190610048929190610067565b50806001908051906020019061005f929190610067565b505050610360565b8280546100739061032f565b90600052602060002090601f01602090048101928261009557600085556100dc565b82601f106100ae57805160ff19168380011785556100dc565b828001600101855582156100dc579182015b828111156100db5782518255916020019190600101906100c0565b5b5090506100e991906100ed565b5090565b5b808211156101065760008160009055506001016100ee565b5090565b6000604051905090565b600080fd5b600080fd5b600080fd5b600080fd5b6000601f19601f8301169050919050565b7f4e487b7100000000000000000000000000000000000000000000000000000000600052604160045260246000fd5b61017182610128565b810181811067ffffffffffffffff821117156101905761018f610139565b5b80604052505050565b60006101a361010a565b90506101af8282610168565b919050565b600067ffffffffffffffff8211156101cf576101ce610139565b5b6101d882610128565b9050602081019050919050565b60005b838110156102035780820151818401526020810190506101e8565b83811115610212576000848401525b50505050565b600061022b610226846101b4565b610199565b90508281526020810184848401111561024757610246610123565b5b6102528482856101e5565b509392505050565b600082601f83011261026f5761026e61011e565b5b815161027f848260208601610218565b91505092915050565b6000806040838503121561029f5761029e610114565b5b600083015167ffffffffffffffff8111156102bd576102bc610119565b5b6102c98582860161025a565b925050602083015167ffffffffffffffff8111156102ea576102e9610119565b5b6102f68582860161025a565b9150509250929050565b7f4e487b7100000000000000000000000000000000000000000000000000000000600052602260045260246000fd5b6000600282049050600182168061034757607f821691505b60208210810361035a57610359610300565b5b50919050565b6103558061036f6000396000f3fe608060405234801561001057600080fd5b50600436106100415760003560e01c806306fdde0314610046578063313ce5671461006457806395d89b4114610082575b600080fd5b61004e6100a0565b60405161005b9190610266565b60405180910390f35b61006c610132565b60405161007991906102a4565b60405180910390f35b61008a61013b565b6040516100979190610266565b60405180910390f35b6060600080546100af906102ee565b80601f01602080910402602001604051908101604052809291908181526020018280546100db906102ee565b80156101285780601f106100fd57610100808354040283529160200191610128565b820191906000526020600020905b81548152906001019060200180831161010b57829003601f168201915b5050505050905090565b60006012905090565b60606001805461014a906102ee565b80601f0160208091040260200160405190810160405280929190818152602001828054610176906102ee565b80156101c35780601f10610198576101008083540402835291602001916101c3565b820191906000526020600020905b8154815290600101906020018083116101a657829003601f168201915b5050505050905090565b600081519050919050565b600082825260208201905092915050565b60005b838110156102075780820151818401526020810190506101ec565b83811115610216576000848401525b50505050565b6000601f19601f8301169050919050565b6000610238826101cd565b61024281856101d8565b93506102528185602086016101e9565b61025b8161021c565b840191505092915050565b60006020820190508181036000830152610280818461022d565b905092915050565b600060ff82169050919050565b61029e81610288565b82525050565b60006020820190506102b96000830184610295565b92915050565b7f4e487b7100000000000000000000000000000000000000000000000000000000600052602260045260246000fd5b6000600282049050600182168061030657607f821691505b602082108103610319576103186102bf565b5b5091905056fea26469706673582212203180fb52a72a7f48cda922964f486b2900d49bf72552c75efe06cf6f936d7fbd64736f6c634300080d0033",
  "immutableReferences": {},
  "source": "// SPDX-License-Identifier: UNLICENSED\npragma solidity ^0.8.0;\n\nabstract contract Context {\n    function _msgSender() internal view virtual returns (address) {\n        return msg.sender;\n    }\n\n    function _msgData() internal view virtual returns (bytes calldata) {\n        return msg.data;\n    }\n}\n\ncontract ERC20Simplfiied is Context {\n    string private _name;\n    string private _symbol;\n\n    constructor(string memory name_, string memory symbol_) {\n        _name = name_;\n        _symbol = symbol_;\n    }\n\n    function name() public view virtual returns (string memory) {\n        return _name;\n    }\n\n    function symbol() public view virtual returns (string memory) {\n        return _symbol;\n    }\n\n    function decimals() public view virtual returns (uint8) {\n        return 18;\n    }\n}\n",
  "sourcePath": "/Users/neelsomani/Desktop/terranova-core/contracts/counter/solidity/contracts/ERC20Simplified.sol",
  "compiler": {
    "name": "solc",
    "version": "0.8.13+commit.abaa5c0e.Emscripten.clang"
  },
  "schemaVersion": "3.4.7",
  "updatedAt": "2022-04-28T23:14:06.201Z",
  "devdoc": {
    "kind": "dev",
    "methods": {},
    "version": 1
  },
  "userdoc": {
    "kind": "user",
    "methods": {},
    "version": 1
  }
}